:020000040800F2
:10000000800400204501000803130008BB1200080B
:1000100001130008490200089D15000800000000B7
:1000200000000000000000000000000007130008AE
:100030004B02000800000000051300080913000827
:100040005F0100085F0100085F0100085F01000810
:100050005F0100085F0100085F0100085F01000800
:100060005F0100085F0100085F0100085F010008F0
:100070005F0100085F0100085F0100085F010008E0
:100080005F0100085F0100085F0100085F010008D0
:100090005F0100085F0100085F0100085F010008C0
:1000A0005F0100085F0100085F0100085F010008B0
:1000B0005F0100085F0100085F0100085F010008A0
:1000C0005F0100085F0100085F0100085F01000890
:1000D0005F0100085F0100085F0100085F01000880
:1000E0005F0100085F0100085F0100085F01000870
:1000F0005F0100085F0100085F0100085F01000860
:100100005F0100085F0100085F0100085F0100084F
:100110005F0100085F0100085F0100085F0100083F
:100120005F0100085F0100085F0100085F0100082F
:10013000DFF80CD000F018F800480047DD15000883
:10014000800400200648804706480047FEE7FEE797
:10015000FEE7FEE7FEE7FEE7FEE7FEE7FEE7FEE777
:100160008113000831010008064C074D06E0E068E5
:1001700040F0010394E8070098471034AC42F6D3EE
:10018000FFF7DAFFDC160008FC16000870B504461D
:1001900000688168C943C9071CD1816821F0010149
:1001A000816000F089FB05460FE000BF00F084FB92
:1001B000401B022809D9A06A40F01000A062E06A42
:1001C00040F00100E062012070BD20688068C043FB
:1001D000C007EBD0002070BDF8B50026044600969D
:1001E00000688168C943C90728D0816841F00101CE
:1001F0008160134813490068B0FBF1F000E0401E35
:1002000000900028FBD100F057FB054611E000BF2D
:1002100000F052FB401B02280BD9A06A40F01000EE
:10022000A062E06A40F00100E06284F824600120EE
:10023000F8BD20688068C043C007E9D10020F8BD40
:100240000C00002040420F00FEE77047F8B5002484
:10025000009490F824202546012A12D0012280F82B
:1002600024204A681F23072A0DD20668776B521E86
:1002700002EB820293409F430B6893401F437763D6
:1002800019E00220F8BD06680D2A0AD2376BD21F8A
:1002900002EB820293409F430B6893401F433763F6
:1002A00009E0F76A0D3A02EB820293409F430B6824
:1002B00093401F43F7620A68072306680A2A0AD395
:1002C000F7680A3A02EB420293409F438B689340DF
:1002D0001F43F76008E0376902EB420293409F43F7
:1002E0008B6893401F4337610A68102A01D0112A96
:1002F00020D1124B02689A4217D193681B0219D47D
:10030000936843F4000393600968102912D10C49E3
:100310000C4A0968B1FBF2F101EB8101490000E0F0
:10032000491E00910029FBD104E0816A41F02001BF
:100330008162012480F824502046F8BD0024014049
:100340000C00002040420F000068C06C70470000A5
:100350002DE9F04104004FF000057FD0A06A00268F
:1003600028B9E66284F82460204600F081F820462F
:10037000FFF70CFFA16AC90600D420B1A06A40F0C3
:100380001000A0626AE0A16A21F4885141F00201E4
:10039000A162334923688B42E16904D1B1F5402F52
:1003A00001D14FF40021E7684FF4807C41EA470215
:1003B00061680A43A168614508D0012906D000217F
:1003C000D4F814E0BEF1010F02D00AE06146F7E76D
:1003D000C7B1A76A47F02007A762E76A47F001079D
:1003E000E7625F6827F469470F435F602368996895
:1003F0001C4F394011439960A16861450BD0012918
:1004000009D00CE0DFF860E0A7690EEB47370F4337
:1004100047F40061E5E7218A0D05A5F580152168FF
:10042000CB6A23F470032B43CB62216889680F4B9E
:100430001940914208D1E662A16A21F0020141F01F
:100440000101A162BDE8F081A06A20F0020040F045
:100450001000A062E06A40F00100E0620120F1E7D4
:10046000003C0140FDF7E1FF00E0FFFFFE0E1FFF33
:1004700000B500680B4985B0884210D10A488169EF
:1004800041F4007181618069694600F40070049054
:100490000120009003200190044800F013F905B0FA
:1004A00000BD00000024014000100240000801408F
:1004B0002DE9F84300260D460446009600F0FCF9AD
:1004C000804620688168C90508D5A06A40F02000F0
:1004D000A06284F824600120BDE8F8834168C90562
:1004E00003D4C06A10F4700F26D0022000F09EFAE8
:1004F00038490968B1FBF0F72068036936490B42B7
:100500004FEA61014FEAA1121BD1C3684FEA611C97
:1005100013EA0C0F15D103690B4221D1C0681042B8
:100520001ED114201FE0681C06D045B300F0C4F9AA
:10053000A0EB0800A84222D8206800688007F2D506
:100540002AE003690B4202D1C168114206D0026958
:1005500022490A4206D1C068084203D1542002E071
:10056000292000E0FC204743009813E0681C0ED0CF
:100570002DB100F0A1F9A0EB0800A84207D9A06AAC
:1005800040F00400A06284F824600320A4E70098EF
:10059000401C0090B842E9D321686FF01200086057
:1005A000A06A40F40070A06220688068C0F34240F6
:1005B00007280CD1E06850B9A06A20F48070A062CE
:1005C000A06AC00403D4A06A40F00100A062002029
:1005D00082E700000C000020244992244992240064
:1005E00070B5044690F8240001280DD0012084F84D
:1005F00024002046FFF7F0FD02004FF0000005D078
:1006000084F82400104670BD022070BDA16A40F23B
:100610000123994341F48071A1621F4D23681F4952
:10062000AB4218D10E6816F4702F14D0A66A46F4A7
:100630008016A6620E68760505D5A66A26F40056D1
:1006400046F48056A662A66AF6040AD5E66A26F043
:100650000606E66206E0A66A26F48016A6625E68D2
:10066000E9E7E06284F824006FF002001860206877
:100670008368C3F34243072B05D1A84208D1096818
:1006800011F4702F04D0816841F480118160B9E7C2
:10069000816841F4A001F9E70028014004240140E9
:1006A00070B5044600F008F90546601C02D0044805
:1006B0000078044400F000F9401BA042FAD370BD5A
:1006C000000000202DE9F84FDFF8B8A100220AF160
:1006D000040B144601274FF00F090BF1040E00BF65
:1006E0000B6807FA04F52B40AB4274D1DFF898C1D0
:1006F0004E68A6EB0C0866452BD00DDC032E34D0DB
:1007000005DC36B3012E19D0022E2FD11BE0112E9D
:1007100016D0122E2AD119E0B8F5881F19D006DCA0
:10072000B8F5803F15D0B8F5801F1FD111E0B8F59E
:10073000001F0ED0B8F5041F18D10AE0CA6815E0F2
:10074000CA68121D12E0CA6808320FE0CA680C328B
:100750000CE08A682AB1012A4FF0080203D04561F3
:1007600004E0042202E0056100E00022FF2B01D832
:10077000064601E000F104064FEA840501D9A5F11F
:100780002005D6F800C009FA05F82CEA080C02FA90
:1007900005F54CEA050CC6F800C04D68ED006AD5B9
:1007A0003A4DAE6946F00106AE61AD6924F003062C
:1007B00005F001050095364D06EB050CDCF80850F8
:1007C000A6074FEA167809FA08F6B543314EB0424B
:1007D00002D100261AE04EE02F4EB04201D1012690
:1007E00014E02E4EB04201D102260FE02C4EB04252
:1007F00001D103260AE02B4EB04201D1042605E0C8
:10080000294EB04201D1052600E0062606FA08F678
:100810002E43CCF808604D68DAF80060ED035546C9
:1008200001D51E4300E09E432E604D68AD0305D503
:10083000DBF800601E43CBF8006004E0DBF80050FA
:100840009D43CBF800504D68DEF80060ED02754620
:1008500001D51E4300E09E432E604D68AD0205D5D4
:10086000084D0C352E681E432E6004E0054E0C36F4
:1008700035689D433560641C102CFFF431AFBDE832
:10088000F88F000000040140000011100010024029
:100890000000014000080140000C01400010014030
:1008A0000014014000180140001C01400AB1016120
:1008B00070470904FBE700000148806870470000AA
:1008C000000000200248816802781144816070476E
:1008D00000000020074810B5016841F010010160D8
:1008E000032000F091F8002000F006F800F024F852
:1008F000002010BD0020024070B50D4D04464FF49D
:100900007A712878B1FBF0F00A490968B1FBF0F080
:1009100000F001FC48B9102C07D200222146501EDD
:1009200000F052F800206C6070BD012070BD000026
:10093000000000200C000020214808B5816941F02A
:1009400001018161816901F001010091C16941F0FA
:100950008051C161C06900F080500090032000F018
:1009600053F8002211466FF00B0000F02DF8002222
:1009700011466FF00A0000F027F8002211466FF0D0
:10098000090000F021F800221146501F00F01CF869
:1009900000221146101F00F017F800221146901E89
:1009A00000F012F800221146501E00F00DF8054824
:1009B000416821F0E06141F00071416008BD000034
:1009C0000010024000000140F0B40E4B1B680C46C2
:1009D000C3F30223C3F10705042D00D90425191D13
:1009E000072901D2002300E0DB1E012606FA05F1EB
:1009F000491E214099409E40761E16403143F0BC6E
:100A000000F0CDBD0CED00E0064900F007020868DB
:100A10004FF6FF03184040EA0220034A10430860E3
:100A2000704700000CED00E00000FA0510B52CA4A2
:100A300001461DCC86B08DE81D002DA02D4C006810
:100A40000490002004292FD00BDC01292FD002298B
:100A500028D100F08BF96168C1F38131491C49004C
:100A60001EE0082920D010291CD161682268D2011B
:100A700018D5C1F38342C9031DF8020009D5616886
:100A800004AAC1F34041515C1B4AB2FBF1F1484357
:100A900001E01A4948436168490203D44000032138
:100AA000B0FBF1F006B010BD00F070F9FAE7226A71
:100AB000C2F30121012903D1920701D5C803F1E74F
:100AC000022905D1626A920702D549F64040E9E75A
:100AD0000329E7D121688903E4D54FF22440E1E7F7
:100AE00002030405060708090A0B0C0D0E0F10106F
:100AF000010200000010024000127A0000093D00CF
:100B00002DE9F84305460078354CC00754D0E0691C
:100B10000026C00008D4E06940F08050E061E06940
:100B2000012600F0805000902E480168C90512D4BB
:100B30000168804641F480710160FFF7BDFE074601
:100B400005E000BFFFF7B8FEC01B642823D8D8F823
:100B50000000C005F6D5206A10F4407021D0A988A5
:100B600001F4407181421CD0206A1F49012220F407
:100B700040700A6000220A602062C00711D0FFF7AF
:100B80009BFE074641F2883808E000BFFFF794FE5D
:100B9000C11B414502D90320BDE8F883206A8007C4
:100BA000F4D5206A696820F44070084320621EB1C1
:100BB000E06920F08050E0612878800705D5606802
:100BC000A96820F44040084360602878C00605D535
:100BD0006068696920F48000084360600020DBE7FA
:100BE0000010024000700040400442422DE9F047EE
:100BF000DFF83C8105460E46D8F8000000F00700FB
:100C0000B0420CD2D8F8001021F007013143C8F8E7
:100C10000010D8F8000000F00700B04263D1287837
:100C2000444C800705D56068A96820F0F0000843AF
:100C300060602878C00745D06868012816D0216810
:100C4000022816D0890700294DDA616821F00301D6
:100C500001436160FFF730FE6968074641F2883062
:100C600001290FD00229814619D027E02168890384
:100C7000E9E78901E7E700BFFFF71EFEC11B494511
:100C800001D918E081466068C0F381000128F3D1E2
:100C900018E000BFFFF710FEC11B49450BD8606884
:100CA000C0F381000228F5D10CE000BFFFF704FE7D
:100CB000C11B494502D90320BDE8F087606810F0E8
:100CC0000C0FF3D1D8F80010404601F00701B142F3
:100CD0000BD9016821F0070131430160006800F081
:100CE0000700B04201D00120E6E72878400705D58B
:100CF0006068E96820F4E0600843606028780007D5
:100D000006D56068296920F4605040EAC10060603F
:100D100000F03CF86168084AC1F30311515CC84017
:100D2000064908600020FFF7E7FD0020C4E7000047
:100D30000020024000100240C41600080C000020F1
:100D400001480068704700000C0000200448054975
:100D500000684968044AC1F30221515CC8407047E9
:100D60000C00002000100240D41600080448054979
:100D700000684968044AC1F3C221515CC840704709
:100D80000C00002000100240D416000812A185B00B
:100D90000FC98DE80F0014A0144A00680490516830
:100DA000134801F00C03042B10D0082B0ED1C1F313
:100DB0008343C9031DF803000AD5516804AAC1F38F
:100DC0004041515C0A4A5043B0FBF1F005B0704716
:100DD00008494843FAE7000002030405060708092A
:100DE0000A0B0C0D0E0F1010010200000010024043
:100DF00000127A0000093D002DE9F84F0446007802
:100E0000B94DC00748D06868C0F38100012807D0F9
:100E10006868C0F38100022809D16868C00306D55C
:100E20002868800338D5606800286FD034E0606897
:100E3000B0F5803F0BD010B1B0F5A02F11D02868CD
:100E400020F480302860286820F4802002E02868A0
:100E500040F480302860606888B1FFF72DFD0646B9
:100E600009E0286840F480202860F0E7FFF724FDBF
:100E7000801B642875D828688003F7D50CE0FFF73D
:100E80001BFD064605E000BFFFF716FD801B64282A
:100E9000F0D828688003F7D42078944E80074FF06C
:100EA00001094FF000083BD5686810F00C0F07D01F
:100EB0006868C0F38100022809D16868C00306D4BD
:100EC0002868800714D5206901281FD110E0206907
:100ED000B0B1C6F80090FFF7EFFC074605E000BF91
:100EE000FFF7EAFCC01B0228C4D828688007F7D5A2
:100EF0002868616920F0F80040EAC10028600FE02E
:100F0000C6F80080FFF7D8FC074606E0E9E000BF1E
:100F1000FFF7D2FCC01B022823D828688007F7D42B
:100F2000207800072CD57248A169D9B1C0F800908B
:100F3000FFF7C2FC074604E0FFF7BEFCC01B022817
:100F40000FD8686A8007F7D56A484FF4FA510068ED
:100F5000B0FBF1F0009000BF0098411E0091FAD262
:100F60000EE080E0C0F80080FFF7A6FC074604E032
:100F7000FFF7A2FCC01B022875D8686A8007F7D467
:100F80002078400760D5E8690027C00008D4E869E8
:100F900040F08050E861E869012700F0805000903F
:100FA00055480168C90513D40168834641F480712E
:100FB0000160FFF781FC824606E000BFFFF77CFC82
:100FC000A0EB0A0064284ED8DBF80000C005F5D578
:100FD000E06801280AD008B1052813D0286A20F05B
:100FE00001002862286A20F0040002E0286A40F02C
:100FF00001002862E06841F2883B98B1FFF75CFC91
:1010000082460BE0286A40F004002862EEE700BF49
:10101000FFF752FCA0EB0A0159455AD8286A80070D
:10102000F6D50CE0FFF748FC824605E0FFF744FCEC
:10103000A0EB0A0159454CD8286A8007F6D41FB1A5
:10104000E86920F08050E861E06988B36968C1F31D
:101050008101022945D00228C6F8608004D0FFF73C
:101060002BFC044638E034E0FFF726FC074604E09A
:10107000FFF722FCC01B02282BD828688001F7D478
:10108000206AB0F5803F05D16868A16820F400307F
:1010900008436860D4E908010843696821F47411C1
:1010A00008436860C6F86090FFF706FC044606E057
:1010B00015E000BFFFF700FC001B022809D82868D4
:1010C0008001F7D50BE000BFFFF7F6FB001B0228FD
:1010D00002D90320BDE8F88F28688001F4D40020ED
:1010E000F8E70120F6E7000000100240000042424D
:1010F000800442420C000020007000404FF0E021CC
:101100000428086903D020F004000861704740F00B
:101110000400FAE7704710B5401EB0F1807F01D39C
:10112000012010BD4FF0E02460610F21601700F036
:1011300036FA0020A06107202061002010BD10B504
:10114000FFF7E8FF10BD70B5040004D094F8390033
:10115000002510B106E0012070BD84F8385020460B
:1011600000F022F8242084F839002068C16821F4B6
:101170000051C160204600F027F92068016921F480
:10118000904101612068416921F02A014161206894
:10119000C16841F40051C160E563202084F8390042
:1011A00084F83A00002070BD10B50068114986B07F
:1011B00088421DD11048816941F480418161806974
:1011C0000E4C00F4804004904FF400700090022018
:1011D00001900320039069462046FFF773FA00212F
:1011E0002015CDE90001029169462046FFF76AFA11
:1011F00006B010BD00380140001002400008014058
:101200002DE9F843044690F839001F4616460D466E
:10121000202850D1A5B19EB194F8380001284AD0B9
:10122000012084F838004FF00008C4F83C802120E9
:1012300084F83900FFF740FBA6848146E68426E067
:101240000120BDE8F883E08C401EE084A0684B4696
:10125000B0F5805F4FF000024FF08001204600970C
:1012600003D000F069F9E8B90DE000F065F9C8B9FC
:1012700028882168C0F308004860206908B16D1C07
:1012800005E0AD1C03E0216815F8010B4860E08C17
:101290000028D8D14B46002240212046009700F07C
:1012A0004BF908B10320CCE7202084F8390084F8FA
:1012B00038800020C5E70220C3E7FEE73EB50F48AF
:1012C00000240D498460C46044610160012505610A
:1012D0004FF460214460C161FFF73AF800B1FEE7C6
:1012E000CDE90045694605480294FEF7AFFF0028A6
:1012F00000D0FEE73EBD00000024014010000020A9
:10130000FEE770477047704710B5FFF7DBFABDE89E
:101310001040FFF714BF30B595B0012002250490AE
:10132000009510200024059007946846FFF764FD9F
:1013300000B1FEE70F20CDE90A040C940D940021C2
:101340000AA80E94FFF752FC00B1FEE70FA80F9514
:101350001194FFF7D5FB00B1FEE7FFF7F1FC4FF466
:101360007A71B0FBF1F0FFF7D6FE0420FFF7C6FE5E
:1013700000221146501EFFF727FB15B030BD0000BC
:101380000D48016841F00101016041680B4A1140BC
:10139000416001680A4A11400160016821F480211E
:1013A0000160416821F4FE0141604FF41F0181603A
:1013B0000449C00308607047001002400000FFF8B5
:1013C000FFFFF6FE08ED00E02DE9F041044600685D
:1013D0000169E26821F44051114301612169A0686B
:1013E0000843616908432168CA6841F20C639A4363
:1013F0000243CA6020684169A26921F44071114327
:1014000041614C4920686425322688423CD1FFF76F
:10141000ADFC00EBC00101EB001061688900B0FB7E
:10142000F1F7FFF7A3FC00EBC00101EB00106168CE
:10143000B0468900B0FBF1F0B0FBF5F06FF0180199
:10144000484307EB800106EB0110B0FBF5F000F01C
:10145000F006FFF78BFC00EBC00101EB00106168A8
:101460008900B0FBF1F0B0FBF5F006EB0016FFF7DA
:101470007DFC00EBC00101EB001061688900B0FB4E
:10148000F1F7FFF773FC3BE0FFF760FC00EBC001F6
:1014900001EB001061688900B0FBF1F7FFF756FC23
:1014A00000EBC00101EB00106168B0468900B0FBA1
:1014B000F1F0B0FBF5F06FF01801484307EB800145
:1014C00006EB0110B0FBF5F000F0F006FFF73EFC74
:1014D00000EBC00101EB001061688900B0FBF1F086
:1014E000B0FBF5F006EB0016FFF730FC00EBC00197
:1014F00001EB001061688900B0FBF1F7FFF726FCF3
:1015000000EBC00101EB001061688900B0FBF1F055
:10151000B0FBF5F06FF01801484307EB800108EBD2
:101520000110B0FBF5F0216800F00F003044886036
:10153000BDE8F081003801402DE9F041984617469A
:101540000E460446069D1DE0681C1BD02DB1FFF71A
:10155000B3F9A0EB0800A84214D92068C16821F4AF
:10156000D071C1602068416921F0010141612020F2
:1015700084F8390084F83A00002084F83800032009
:10158000BDE8F0812068006836EA000004D0002041
:10159000B842D9D00020F3E70120F9E7FEE70907B8
:1015A000090E002804DB00F1E02080F800147047E9
:1015B00000F00F0000F1E02080F8141D704702E0F9
:1015C00008C8121F08C1002AFAD1704770470020CE
:1015D00001E001C1121F002AFBD1704788B0FFF75C
:1015E00079F9FFF798FE3348816941F01001816174
:1015F000816901F010010691816941F00401816166
:1016000080692D4C00F00400069000220321204642
:10161000FFF74CF903200090012001900290022076
:10162000039069462046FFF74DF8254923480022DC
:1016300008604FF4E130C1E901020C20CA60C1E941
:1016400004208A610846CA61FFF77DFD00B1FEE70C
:10165000FFF734FE012211462046FFF727F9012249
:1016600002212046FFF722F96420FFF719F8002233
:1016700001212046FFF71AF9002202212046FFF738
:1016800015F96420FFF70CF80D483038FEF7A8FF75
:101690000B480A213038FEF70BFF09483038FEF7B7
:1016A00053FE8DF810000A23012204A90448FFF715
:1016B000A7FDCFE7001002400010014000380140B4
:1016C00040000020000000000000000001020304B0
:1016D000060708090000000001020304FC160008C8
:1016E0000000002010000000BE1500080C170008C4
:1016F0001000002070040000CE150008010000005A
:0C170000100000000000000000A24A04DD
:0400000508000131BD
:00000001FF
